:100000000C946E010C948B010C9474050C948B0170
:100010000C948B010C945C050C948B010C948B015B
:100020000C948B010C948B010C948B010C948B0120
:100030000C948B010C948B010C9480030C948B0119
:100040000C948B010C948B010C948B010C948B0100
:100050000C948B010C948B010C948B010C948B01F0
:100060000C948B010C948B010C948B010C948B01E0
:100070003230323031323239303434330001050419
:100080001410111500000000000000000000000026
:100090000000000000000000000000000000000060
:1000A0000000000000000000000000000000000050
:1000B0000000000000000000000000000000000040
:1000C0000000000000000000000000000000000030
:1000D0000000000000000000000000000000000020
:1000E0000000000000000000000000000000000010
:1000F0000000000000000000000000000000000000
:1001000000000000000000000000000000000000EF
:1001100000000000000000000000000000000000DF
:1001200000000000000000000000000000000000CF
:1001300000000000000000000000000000000000BF
:1001400000000000000000000000000000000000AF
:10015000000000000000000000000000000000009F
:10016000000000000000000000000000000000008F
:10017000000000000000000000000000000000007F
:10018000000000000000000000000000000000006F
:10019000000000000000000000000000000000005F
:1001A0000000000000000000000000000000FF034D
:1001B0000100020003000300030003000300040029
:1001C0000400040005000500060006000700070003
:1001D00008000800090009000A000A000B000C00D2
:1001E0000D000E000F001000110012001400150089
:1001F000170018001A001B001D001F00210023001B
:100200002500270029002B002D003000320035008A
:1002100038003A003D004000430046004A004D00CF
:100220005000540058005B005F00630067006C00E2
:100230007000740079007D00820087008C009100BE
:1002400096009C00A100A700AD00B200B800BF005E
:10025000C500CB00D200D900DF00E600EE00F500BB
:10026000FC0004010C0113011B0124012C013401C9
:100270003D0146014F01580161016B0174017E018E
:10028000880192019D01A701B201BD01C801D301FE
:10029000DE01EA01F60102020E021A02270233020F
:1002A00040024D025B026802760284029202A002C2
:1002B000AF02BE02CD02DC02EB02FB020A031A030C
:1002C0002B033B034C035D036E037F039103A303E6
:1002D000B503C703D903EC03FF03000011241FBEBD
:1002E000CFEFD4E0DEBFCDBF11E0A0E0B1E0E0E8A9
:1002F000FFE202C005900D92AA34B107D9F721E0C0
:10030000AAE4B1E001C01D92A13FB207E1F70E944B
:10031000B2140C94BE170C940000CF93DF9300D05E
:1003200000D000D0CDB7DEB740911A0120919C01DA
:1003300030919D01295A3A4009F442E06623F9F0D0
:10034000823019F497E9961B692F96E0E0E2F1E01C
:10035000DE01119601900D929A95E1F7E82FF0E0F9
:100360003197EE0FFF1F81E090E08C0F9D1FE80F8B
:10037000F91F0190F081E02DE40FF11D60832696B6
:100380000FB6F894DEBF0FBECDBFDF91CF910895B9
:10039000813019F4109274010895609373010895E7
:1003A00081E00895611160931E010895662389F02C
:1003B000813061F480919F0190917D01891B681BC0
:1003C00060937D0182E080931F0103C0635E6093B0
:1003D0001D0180911D01873418F086E480931D0172
:1003E000089560936D010895FF920F931F93CF932B
:1003F000DF93EC018B01F22E20919C0130919D0145
:10040000232B31F0E0919C01F0919D01842F0995FF
:10041000D0939D01C0939C01CD2B39F0E0919C01BC
:10042000F0919D01B8018F2D099581E080937601AF
:10043000DF91CF911F910F91FF900895DC01909172
:100440007C01983098F4E92FF0E0EE0FFF1FEF5198
:10045000FE4FB183A0839F5F90937C0128E049E029
:10046000CD010E94F40180917C0108958FEF0895E1
:10047000CF93DF9380917C018823B1F081508093EA
:100480007C01282F30E0F901EE0FFF1FEF51FE4FE6
:10049000C081D181882369F0220F331FF901E15215
:1004A000FE4F8081918107C0C0E0D0E080E090E005
:1004B00002C080E090E02AE049E060E070E00E9445
:1004C000F401CE01DF91CF9108950F931F93CF9345
:1004D000DF93EC018B010E943802B801CE010E942B
:1004E0001E02DF91CF911F910F910895CF93C0917C
:1004F0001B01C1111BC0813C39F460E070E08CE746
:100500009BE00E94650215C0823C39F460E070E017
:100510008CE992E00E9465020CC0873B49F460E0E0
:1005200070E085EB9AE00E941E0203C0C1E001C0AA
:10053000C1E08C2FCF910895813C41F460E070E0E0
:100540008CE79BE00E94650280E00895823C41F4C4
:1005500060E070E08BE09DE00E94650280E008951D
:10056000873B41F460E070E08BEB9AE00E941E0252
:1005700080E0089581E00895813C41F460E070E0FE
:100580008CE79BE00E94650280E00895823C41F484
:1005900060E070E086E792E00E94650280E00895E6
:1005A00081E008959091A701992361F0EAEAF1E0D2
:1005B00091E004C09F5F3396903189F02081211132
:1005C000F9CF01C090E0292F30E0290F311D290F0C
:1005D000311DF901E955FE4F8083728361830895CF
:1005E000E7EAF1E024ED31E0838180838481958125
:1005F000928381833396E217F307B1F7E7EAF1E0DC
:1006000015A617A616A608950F931F93CF93DF93F1
:10061000D82F8B01C0917C01C1508AF0EC2FEE0FD6
:10062000FF0BEF51FE4F0190F081E02DB8018D2FAF
:100630000995882331F0C1508AF781E003C081E039
:1006400001C080E0DF91CF911F910F910895CF936A
:10065000DF938091A701882359F0C7EAD1E069812F
:100660007A810E9404030E94F00288818111F7CFF1
:10067000DF91CF910895BC018091DC010E94D202EC
:1006800008951092DC01109284011092830181E0A0
:100690008093760108959091DC01803181F4292FB7
:1006A00020699F70892F90E00F9724F02093DC0140
:1006B00081E008952F5F2093DC0181E00895882375
:1006C00029F090689093DC0180E00895892F8F7E57
:1006D00095FD05C080688093DC0181E00895806C01
:1006E0008093DC0181E008959FEF980F882339F013
:1006F00028E13FE1F9013197F1F79150D8F70895DA
:100700001F920F920FB60F9211242F933F938F9346
:100710009F93AF93BF93EF93FF93809181018823C1
:10072000E9F0E091800120B131B1F0E0EE0FFF1F60
:10073000DF01A352BE4F2D933C93E852FE4F8081C0
:1007400091818217930708F401962817390708F456
:1007500001979183808381E08093820181E080937F
:100760008101FF91EF91BF91AF919F918F913F9147
:100770002F910F900FBE0F901F901895BF92CF92A0
:10078000DF92EF92FF920F931F93CF93DF9310921C
:10079000820120B191B1309177012295269526955D
:1007A0002370892F90E0880F991F880F991F820F5F
:1007B000911D830F8093770180917F01882309F435
:1007C0006DC110927F0180918001909179019923F0
:1007D00019F01F9810928001811140C080911F0173
:1007E000882349F08091DD019091DE019093D90139
:1007F0008093D80104C08091D8019091D90140968E
:10080000807E969587956EE872E00E947C178091B5
:100810001E018750680F60937E0180916A018823D2
:1008200021F0815080936A010AC06D3140F460E08C
:1008300070E084E00E94D20285E080936A0180919A
:10084000790181111CC18BE084B981E08093800122
:100850001092810183B1886483B911C1813009F09C
:100860000EC180911F018823D1F08091DF0190910A
:10087000E0019093DB018093DA014096969587958D
:10088000929582958F7089279F708927EAE5F1E01C
:100890002AE631E081939193E217F307D9F7C091EB
:1008A000DA01D091DB016096D695C795D295C295B5
:1008B000CF70CD27DF70CD27B0907D01BE0176953A
:1008C00067956D5C710980E090E00E945C1628E4F9
:1008D00031EE42E850E40E94B41520E030E0A90176
:1008E0000E9448156B017C016B2D0B2C000C770BC3
:1008F000880B990B0E945E169B01AC01C701B601E3
:100900000E9448150E9426166B017093A001609307
:100910009F0180915901E82FF0E0EE0FFF1FE65A8A
:10092000FE4F208131817E01E21AF30AD183C08318
:100930008F5F87708093590100911D0110E0C701FE
:10094000880F991F880F991FC80FD91FB8016B19FD
:100950007109B7FC7395072E000C880B990B0E9448
:100960005E1628E431EE42E850E40E94EA1620E0E8
:1009700030E04DE453E40E9448150E942D16660FA6
:10098000771FCE01861B970B23E01816190614F467
:10099000019703C099230CF401962150B1F7181662
:1009A0001906D4F5FF200CF474C0209158011216DA
:1009B00024F4281B2093580159C0880F991F0397CE
:1009C0009C01220F331F820F931FBC01660F771FFC
:1009D00062957295707F7627607F762792FF02C0BE
:1009E00061587F4F660F672F661F770B1616170625
:1009F00014F061E070E080E1861B80935801095F8C
:100A00001F4FC016D10624F480917801863971F108
:100A100085E00E94D2022AC09C012C5F3F4FEAF47D
:100A2000FF20DCF42091580122232CF42450281BB1
:100A3000209358011BC02CEE281B209358012091B5
:100A40007E012F3198F06CEF7FEF681B790B759565
:100A5000679586E00E94D20209C080917E018E31A6
:100A600028F060E070E087E00E94D20285E084B95F
:100A7000109280011092810183B1886483B98091C2
:100A80001F01882359F080911F01815080931F011D
:100A900005C09C012C5F3F4F02F7C4CFDF91CF917F
:100AA0001F910F91FF90EF90DF90CF90BF9008952E
:100AB000A89580E480BF08951F920F920FB60F9201
:100AC00011248F9381E080937B018F910F900FBE53
:100AD0000F901F9018958FB182FB882780F991E0C5
:100AE00089278093A20108951F920F920FB60F924B
:100AF00011248F9381E080937A018F910F900FBE24
:100B00000F901F9018958093A201882341F080E1F7
:100B10000E944B0380E090E00E943B0309C080E00C
:100B20000E944B0380918301909184010E943B03BA
:100B300010928401109283010895CF93DF93109255
:100B40007B0180918301909184019C012F5F3F4F35
:100B500088279078822B932B909384018093830134
:100B6000C091A2010E946B05C81721F01092790173
:100B70000E948305C0918301D09184018091790105
:100B80008823F9F0BE0183E00E94D2020E9427036D
:100B9000CF73DD27CD2B09F05DC01092570185E0A2
:100BA00084B9109280011092810183B1886483B965
:100BB000E1E6F0E0808181608083139A86EE83B95C
:100BC00039C08091DC01807F803B31F460E070E0CF
:100BD00081E00E94D20204C0BE0181E00E94D202E4
:100BE0008091DC0184FF14C085FF04C0CE010E9407
:100BF0003B0320C06897F0F01092840110928301AB
:100C000080628093DC0180E090E00E943B0312C090
:100C1000882381F085FF03C00E9441030BC06297C7
:100C200048F080648093DC0180E090E00E943B0308
:100C30000E94410380915701811106C083B18864ED
:100C400083B981E080937F01809157018F5F8F711D
:100C500080935701DF91CF910895CF93A89583E4B6
:100C600080BF1F980E946B058111FCCF0E94410339
:100C70008CB788608CBF1092820110927B01109219
:100C80007A01C1E01FC086B78F79806486BF86B7BE
:100C9000806186BF889586B78F7E86BF80917A01F6
:100CA00081111092790180918201882331F0C093E3
:100CB0001F01C0937F010E94BE0380917B018111BF
:100CC0000E949D05809179018111DDCF82E08093A2
:100CD0001F018CB7877F8CBF85E084B9109280019B
:100CE0001092810183B1886483B9E1E6F0E08081EC
:100CF00081608083139A86EE83B90E945805CF9154
:100D0000089586B78F7986BF86B7806186BF88953C
:100D100086B78F7E86BF08955091A101809178019A
:100D2000581718F45FEF580F04C0851710F451E0FE
:100D3000580F4FEF450F453910F48F9A01C08F9827
:100D4000842F90E0880F991FBC0160557E4FFB01F6
:100D500025913491E09178014E1788F4E0916A0072
:100D6000F0916B00EF2B59F42F3F43E0340739F437
:100D70002FEF33E030936B0020936A001FC0E091A7
:100D80006A00F0916B00E217F30748F4EAE6F0E03E
:100D9000208131812F5F3F4F318320830FC0E0914D
:100DA0006A00F0916B002E173F0740F4EAE6F0E08E
:100DB0002081318121503109318320838C579F4F0D
:100DC000FC0125913491E0916C00F0916D00E217E7
:100DD000F30748F4ECE6F0E0208131812F5F3F4FCC
:100DE000318320830FC0E0916C00F0916D002E17CD
:100DF0003F0740F4ECE6F0E02081318121503109D9
:100E000031832083A0916A00B0916B00FB01259192
:100E10003491A217B30761F420916C0030916D00FA
:100E2000FC01859194912817390711F450937801AA
:100E30000895E0910601F09107013196FB70F4608E
:100E4000F0930701E0930601809177018B5A80931C
:100E50007701E491809177018E0F0895EF92FF92D0
:100E60000F931F93CF93DF9382E00E947403F89453
:100E700080E890E00E94A417853A19F0789480E009
:100E800017C00F2EFCE9EF2EF1E0FF2EF02DC5E884
:100E9000D1E001E810E005581140C8018C0F9D1FFA
:100EA0000E94A4178993CE15DF05B9F7789481E0E5
:100EB000DF91CF911F910F91FF90EF900895EF92E6
:100EC000FF920F931F93CF93DF9382E00E947403EE
:100ED000F8940F2EFCE9EF2EF1E0FF2EF02DC5E87F
:100EE000D1E000E810E0055811406991C8018C0F6D
:100EF0009D1F0E94AC17CE15DF05B9F765EA80E8A3
:100F000090E00E94AC177894DF91CF911F910F91E0
:100F1000FF90EF9008950F931F93CF93DF9300D02E
:100F20001F92CDB7DEB795E0998394E09A8393E062
:100F30009B83FE01319640E050E090E061E070E07C
:100F4000A1919A01220F331F8C0102C015950795BC
:100F50002A95E2F79801237019F0213099F024C006
:100F6000B0B39B0102C0220F331FAA95E2F7209570
:100F70003B2F322330BB32B3322332BB31B3232376
:100F800021BB22C0B0B39B0102C0220F331FAA9520
:100F9000E2F7322F30953B2330BB32B3322B32BBDA
:100FA00031B3232B21BB10C0B0B39B0102C0220F71
:100FB000331FAA95E2F73B2F322B30BB32B3322BD3
:100FC00032BB31B3232B21BB4F5F5F4F4330510501
:100FD00009F0B6CF0F900F900F90DF91CF911F9136
:100FE0000F910895CF93C82F809378018093A1012A
:100FF00080917901811102C00E948B07C1110AC042
:1010000010926B0010926A0010926D0010926C00AA
:101010008F981CC0C150C53910F48F9A01C08F98A9
:101020008C2F90E0880F991FFC01E055FE4F259111
:10103000349130936B0020936A00FC01EC57FF4F12
:101040008591949190936D0080936C00CF91089559
:10105000883041F41092D7011092500180E00E9434
:10106000F20737C0813031F580915001811109C0FC
:101070006032710570F181E0809350010E9441035C
:1010800028C08130A1F46B3B710538F082E0809379
:10109000500180E00E94F2071CC061157105C9F083
:1010A0006270862F880F8E5E0E94F20712C00E9427
:1010B00038020FC0813869F481E08093500180913B
:1010C000D7018F5F8093D7010E9441038BE40E9478
:1010D000F20780E00895982F990F88230CF49095DB
:1010E000892F0895F89488ED8FBD88E880BF7894A3
:1010F000A895FFCF8091820181110E94BE0380914B
:101100007B0181110E949D050895FF920F931F930B
:10111000CF93DF930097D1F0F0907601F11019C0D2
:10112000EC0108E017E005C080917601219781115C
:1011300011C0C8010197F1F70E947A080E942703A5
:10114000C130D10589F7FF24F39404C0FF24F39440
:1011500001C0F12C8F2DDF91CF911F910F91FF9046
:101160000895CF93C82F8823A9F089E10E94F20740
:1011700086EA90E00E94850880E00E94F2078AEFEC
:1011800090E00E948508C15081F78AE992E00E94B0
:1011900085080FC089E10E94F20788E090E00E9474
:1011A000850880E00E94F2078AEF90E00E9485089F
:1011B000ECCFCF910895CF93DF9364E60E94701730
:1011C000282F892F6AE00E947017C82FD92F222359
:1011D00051F0822F0E94B1088C2F0E94B1088D2FF0
:1011E0000E94B10803C08111F7CFF9CFDF91CF91F1
:1011F000089580917E010E94DB08089580911A0174
:1012000090911B01911182E090E0FC01EB5EFE4F9A
:10121000208120931901FC01EE5EFE4F80818093B6
:1012200018010895BF92CF92DF92EF92FF920F9331
:101230001F93CF93DF93EC010E94FE0820911901C8
:1012400060911801E0911B01F0E0E15FFE4FD18059
:1012500080911A01882351F091E0D91207C0822FA2
:1012600090E0860F911D9595879558C0422F50E0CC
:10127000C417D5070CF449C0462F50E04C175D0742
:101280000CF445C0811102C08C2F48C0062F021BF0
:10129000ED2DF0E03197802F90E0BF010E94901774
:1012A000E62E60939E01DD20A1F110E0CE2EBF2E30
:1012B000622FAE01421B5109E694F12CCA01992319
:1012C00024F488279927841B950BE816F9061CF54A
:1012D000F80130E015C0CF016C2D7B2D0E947C17EA
:1012E000620FAE01461B5109E00FF11FCA0199239D
:1012F00024F488279927841B950BE816F9066CF4CB
:101300003F5FD312E8CF862F09C0822F07C0862FF8
:1013100005C0822F03C0822F01C0862FDF91CF919D
:101320001F910F91FF90EF90DF90CF90BF900895A5
:10133000809375010E94F2070895CF93DF930E9476
:101340002E07882309F44FC0E5E8F1E080818093FF
:101350001A01C5E1D1E08181888362E171E0828177
:10136000DB018C9383818983848111968C938FE038
:1013700091E02581DC0111962C9326812093740144
:10138000278120937301208520930B0129E031E010
:101390004185D9014C93428511964C932385209326
:1013A0000801248520930C01258520931B012685A7
:1013B0002A832785DB0112962C932089DC01129663
:1013C0002C93818980931D01828980937D0183897B
:1013D00080931E01848980930E01858980930D017D
:1013E000868980936D01DF91CF910895CF93DF932C
:1013F000E5E8F1E080911A018083C5E1D1E08881C0
:10140000818362E171E0DB018C9182838981838336
:1014100011968C9184838FE091E0DC0111962C91E0
:1014200025832091740126832091730127832091C5
:101430000B01208729E031E0D9014C9141871196B9
:101440002C91228720910801238720910C01248769
:1014500020911B0125872A812687DB0112962C917A
:101460002787DC0112968C91808B80911D01818BE6
:1014700080917D01828B80911E01838B80910E0172
:10148000848B80910D01858B80916D01868B0E94EC
:101490005F07DF91CF910895883099F41092510140
:1014A00080E00E94F2078091A201811148C081E092
:1014B0008093510160E070E088E298E00E941E0293
:1014C0003EC0982F907F903BE1F42091510142174C
:1014D000A0F0CB016DE570E00E947C17029749F403
:1014E0002F5F20935101421750F188E30E94F207C9
:1014F00026C082E10E94F20722C080E00E94F2072B
:101500001EC0903E81F480915101882349F0481714
:1015100038F060E070E088E298E00E941E020FC0A0
:101520000E9438020CC08A3051F46091D70180913A
:101530005101F90109950E94F6090E94380280E0E4
:10154000089540911A014E5F2DE831E00E944C0A47
:1015500008952DE831E043E00E944C0A089528ECFC
:1015600031E042E00E944C0A089522ED31E041E072
:101570000E944C0A089526ED31E042E00E944C0A98
:10158000089521EF31E041E00E944C0A0895409116
:101590007E014D3198F080E08E5F282F30E0F90118
:1015A000E75CFE4F90814917B8F7F901E85CFE4F00
:1015B000E081F0E0E358FF4F8491089580E00895C2
:1015C0000F931F93CF9390917E0191509C3120F403
:1015D00080E00E948B077AC0C82FC295CF708F70B1
:1015E00090917901911103C0C33008F0C2E08730B7
:1015F00030F4E82FF0E0E358FF4FE4914CC087301F
:10160000D1F400914F0110E00F5F1F4F0E941907A6
:1016100065E00E9470179801290F311DC90166E02D
:1016200070E00E94901780934F01FC01FF27E35860
:10163000FF4FE49130C08830D1F480917901882344
:1016400011F08FE001C083E0682351F480914F01D5
:1016500090E0019666E070E00E94901780934F0141
:10166000E0914F01F0E0E358FF4FE49114C0809106
:101670007901882321F00E94C70AE82F0CC0862F29
:10168000869563E00E947017E92FF0E0EE0FFF1FD0
:10169000E358FF4FE491C33079F480914E0190E01C
:1016A000019663E170E00E947C1780934E019927B8
:1016B000DC01AA5DBE4FCC91CC2321F0C13019F0E2
:1016C000EE0F01C0E0E08E2F0E948B07CF911F919B
:1016D0000F910895CF93C091780189E18C0F8739DC
:1016E00008F080E00E94F20782E00E9474038C2FD1
:1016F0000E94F207CF9108950F931F93CF938B0110
:10170000883091F480E00E94F20760E080910E0141
:101710000E94E00A10927101012B09F06AC181E078
:1017200080937901C0E072C1813061F46931710543
:1017300008F461C18093790180910E010E94E00A52
:10174000C0E064C1833089F5709356016093550100
:1017500080910E010E94E00AC0911B01C1114DC190
:1017600080916D01882309F44AC190E09C01229583
:101770003295307F3227207F3227281B390BC90151
:1017800082959295907F9827807F9827821B930B54
:10179000880F991F8017910708F038C160E070E04A
:1017A0008EE39DE00E94650231C1813BB1F481E08E
:1017B00090E00E9412090E94F207C0911A01C11123
:1017C00004C00831110508F421C161E070E080E82F
:1017D0009EE00E946502C0E019C1813E41F461E0D3
:1017E00070E080E89EE00E946502C0E00FC1813891
:1017F00091F580917401882329F12091730130E0E3
:10180000A90142955295507F5427407F5427421B8F
:10181000530B9A0122953295307F3227207F322751
:10182000241B350B220F331F409155015091560157
:101830004217530738F090E00E9412090E94F20705
:10184000C0E0E4C080911C0190E00E9412090E9457
:10185000F207C0E0DBC0813C49F46091780170E0A0
:1018600080E89EE00E946502C0E0D0C0823B81F427
:10187000C0911B01CC2341F086E990E00E9412093F
:101880000E94F207C0E0C2C086E90E94F207BEC013
:10189000823E29F480E00E94F207C0E0B7C0823C9B
:1018A00041F466E970E080E89EE00E946502C0E0D5
:1018B000ADC0833929F480E00E94F207C0E0A6C0E1
:1018C000833C41F460E070E086E792E00E946502AC
:1018D000C0E09CC0843C51F40E946A0B60E070E060
:1018E0008EE39DE00E946502C0E090C08D3B11F444
:1018F0000E9472088F3C41F460E070E080ED91E05E
:101900000E946502C0E082C08A3BB1F4672B09F0F7
:1019100078C0C0911B01CC2341F00E946A0B109249
:101920001B010E94F609C0E071C060E070E089EA26
:101930009AE00E941E026AC0C0911B01C11163C0DF
:101940008A3C41F40E946A0B81E080931B010E9453
:10195000F6095CC0833B39F460E070E08CEE91E105
:101960000E94650253C0853C49F40E946A0B60E006
:1019700070E088EB92E10E94650248C0873CA9F4C0
:1019800090910E01892F82958F708F5F8370829561
:10199000807F9F70892B80930E0160E00E94E00A97
:1019A0000E94F6090E946A0B31C0873BD9F481E09E
:1019B00080937201CB018F739927892B69F49091E1
:1019C0000E01892F8F708F5F292F207F6BE00E947F
:1019D0007017922B90930E01602F80910E010E9440
:1019E000E00A14C0873E89F4109272010E94F60941
:1019F0000DC0C0E00BC0C0E009C0C0E007C0C82FE8
:101A000005C0C1E003C0C1E001C0C1E08C2FCF918F
:101A10001F910F910895813C41F460E070E08CE7E4
:101A20009BE00E94650280E00895823C41F460E002
:101A300070E08CEB92E00E94650280E00895813BAB
:101A400059F4CB016EE370E00E947C17892B91F46E
:101A50000E946A0B80E00895813E71F4CB016EE331
:101A600070E00E947C176F5F60930C010E94F60982
:101A700080E0089580E0089581E008950F931F931A
:101A8000CF93DF93C82F8B01873B49F480E00E94FE
:101A9000F20780911B01882309F499C0BBC08079AB
:101AA0008039D1F4909115018C2F8F70823059F4C8
:101AB000209116018091740181110BC0892F92171A
:101AC00040F4822F06C020911601892F291708F4AF
:101AD000822F0E94F20705C0803819F480E00E942E
:101AE000F207C83039F460E080910D010E94E00AED
:101AF000D1E097C0C13071F40931110508F48CC0F0
:101B000081E080937901602F80910D010E94E00AAD
:101B1000D0E087C0C33039F4602F80910D010E945E
:101B2000E00AD0E07EC0C43CA1F4D0917401DD2372
:101B300041F06D2F70E080E89EE00E946502D0E0E9
:101B400070C060911C0170E080E89EE00E94650218
:101B500068C0C43B61F40E946A0B1092DC0161E032
:101B600070E080E89EE00E946502D0E05AC0C53C6B
:101B700041F466E970E080E89EE00E946502D0E0F2
:101B800050C0D0911B01D11149C0CA3B39F460E06B
:101B900070E081EC9AE00E941E0243C0C73CA9F4A9
:101BA00090910D01892F82958F708F5F8370829540
:101BB000807F9F70892B80930D0160E00E94E00A76
:101BC0000E94F6090E946A0B2CC0C73BE1F481E039
:101BD00080937201C8018F739927892B69F49091C2
:101BE0000D01892F8F708F5F292F207F6BE00E945E
:101BF0007017922B90930D01602F80910D010E9420
:101C0000E00AD0E00EC0C73E59F4109272010E9463
:101C1000F60907C0D1E005C0D0E003C0D1E001C0A3
:101C2000D1E08D2FDF91CF911F910F910895CF9328
:101C3000C091780180E00E94F20783E00E94740363
:101C40008C2F0E94F207CF910895CF93C0911B0172
:101C5000C1114CC0883039F41092710110926F019B
:101C600010926E014AC0813B61F4809171018150F4
:101C70008330F0F583E08093710180937001C1E0BF
:101C80003CC0853BB9F4CB016EE370E00E947C1749
:101C9000892B99F5809171018A3F78F58B5F80934C
:101CA00071018093700110926F0110926E010E9479
:101CB0006A0B23C08130F1F480916E0190916F0125
:101CC000019688382EE0920728F490936F01809354
:101CD0006E0113C010926F0110926E01809171011C
:101CE000882351F081508093710107C0C1E005C085
:101CF000C1E003C0C1E001C0C82F8C2FCF9108956F
:101D0000CF92DF92EF92FF920F931F93CF93DF93C7
:101D1000C82F8B01D0911901E090180180911A0110
:101D2000882319F0C0909E0102C0CC24C394F09087
:101D30007101B8018C2F0E94250ED0907101DD2019
:101D400009F4DCC1F1100CC080917801809354013A
:101D500007C060E070E08CE79BE00E946502E1C193
:101D6000C83009F4CFC1CA30B9F4CFC18D2F90E08B
:101D70008017910738F48E2D90E00817190710F49A
:101D800000931C01C8010E9412090E94980981E079
:101D900080930501D12CC5C1C13C41F460E070E0E5
:101DA0008CE79BE00E946502D12CBBC1C23CE1F4F0
:101DB00080911C018E1540F090911B01911104C07F
:101DC0000F2EF6E9EF2EF02D909178019E1520F45C
:101DD0008E2D0E94980902C00E9498098091780176
:101DE00080935401D12C9DC1C43C59F480E00E94E1
:101DF000F20760E070E08EE39DE00E946502D12C66
:101E000090C18FE48C0F823008F061C080911A017C
:101E1000882341F0C80168E170E00E947C17892B9B
:101E200009F05AC101151105A1F4C23B21F48FEF4D
:101E30008093050129C0809178018E1520F08FEFE5
:101E40008093050121C0D817F8F081E08093050147
:101E50001BC0073381E0180740F0809178018E1590
:101E600020F08FEF809305010FC00D36124060F017
:101E700080917801D81740F00E946A0B60E070E012
:101E80008EE39DE00E946502809105016C2D70E05B
:101E9000082E000C990B0E945F1720917801820F89
:101EA000911D0E94120980931C019091780189175D
:101EB00021F0E81202C00E94170E80911C010E94BE
:101EC00098098091780180935401D12C2AC18FE127
:101ED0008C0F823038F48091050181958093050143
:101EE000D12C1FC1C13009F050C00E33110519F4B7
:101EF00081E080930501DD20A9F0809154016D2DD2
:101F000070E06150710990E00E945F17609170016C
:101F100070E00E949017611101C061E06093A1011F
:101F200060937501209178018091A10190E0821B5E
:101F3000910960915201709153016F5F7F4F7093CF
:101F4000530160935201009709F4C8C00CF0E3C03C
:101F5000253708F4E3C040E450E0569547959C01CE
:101F6000992314F42F5F3F4FC901959587950097EA
:101F7000A1F74617570708F0B3C00E948C061092CD
:101F8000530110925201D12CCCC0C530F1F42091F4
:101F90007801263408F4A6C0822F90E0801B910BB4
:101FA000382F853491052CF08739910518F036E9E2
:101FB00001C035E4263929F485E90E94F207D12CC5
:101FC000B0C03093A101D12CACC0C630C1F4909107
:101FD000780180917501981708F086C0090F111DCE
:101FE00090E0801791073CF0053411051CF485E45E
:101FF00090E001C0C8018093A101D12C92C0C730EC
:1020000099F49091A10180917801891728F48F5F4C
:102010008093A101D12C85C0981708F067C081502A
:102020008093A101D12C7DC0D0901B01D11060C044
:10203000C33CC9F481E090911A01911180E0809332
:102040001A010E94F6090E94170E8091780190E013
:102050000E94120980931C010E94980980917801C6
:10206000809354015EC0C33B39F4012B09F059C081
:1020700086E90E94980955C0C33E29F480911C014D
:102080000E9498094EC0C53C51F480E00E94F207BE
:1020900060E070E088EB92E10E94650242C0C73BBD
:1020A00039F460E070E081EA9AE00E941E0239C0D3
:1020B000CA3C49F480917801809374010E94F6092A
:1020C0000E946A0B2EC0CA3BB1F460E070E08FEA58
:1020D0009AE00E941E0225C0D12C23C0D12C21C021
:1020E000D12C1FC0D12C1DC0D12C1BC0D12C19C08C
:1020F000DD24D39416C0DD24D39413C0FF2009F44B
:102100002FCE27CE10926C0131CE10926C0100912F
:102110001C0110E02BCE40E052E01FCF40E051E028
:102120001CCF8D2DDF91CF911F910F91FF90EF90DC
:10213000DF90CF900895CF93C0E08C2F0E94F207DC
:1021400083E190E00E9485088C2F86950E94F2071B
:1021500083E190E00E9485080E946B058823E1F0EE
:10216000CF5FC03451F714C08C2F0E94F20784E077
:1021700090E00E948508C150B9F710C08C2F0E94D2
:10218000F2078DE090E00E948508C150B9F706C0C3
:102190000E94F609C6E9E8CFC111F0CFCF910895AA
:1021A000CF92DF92EF92FF920F931F93CF93DF9323
:1021B000C82F8B01D09171010E94250EDD2359F0AB
:1021C000D0917101D11107C060E070E08CE79BE015
:1021D0000E946502F7C0C83029F481E080930301B2
:1021E000D0E0F0C0C23C21F410927101D0E0EAC00E
:1021F000C13B21F5012B69F4809102018E3620F05C
:102200008FEF8093030105C0823018F481E0809342
:102210000301D091020180910301D80F21F481E0E4
:1022200080930201CFC0DF3620F4D0930201D0E0CA
:10223000C9C08EE680930201D0E0C4C0C13E39F42B
:1022400080910301819580930301D0E0BBC0C23B24
:1022500069F481E08093030180910201823008F4E7
:10226000ACC0815080930201D0E0ACC0C13009F015
:10227000A6C00E33110519F481E080930301D090BC
:102280004D018D2D0E946B08C82FD0914C018D2FD0
:102290000E946B08E09001012C2F30E0A901440F4F
:1022A000551F440F551F440F551FBA01621B730B76
:1022B0009B016E2D70E090E00E945F17F92EF30EE7
:1022C000C0914B018C2F0E946B08C09000016C2DB7
:1022D00070E090E00E945F179F0D6091020170E036
:1022E000690F711D809171018130B9F480916E0187
:1022F00090916F0196958795929582958F70892719
:102300009F70892724E730E0A901481B590BCA01B7
:102310000E945F17B9010E947C17862F0E94F20766
:1023200000FD06C00E9419078170D80ED0924D01A1
:1023300080914A01D80FD0934C010E94190765E2A1
:102340000E947017C90FC0934B010E9419078F7329
:1023500039F40E9419076DE00E94701790934A01AA
:10236000EE2039F00E9419078F7319F4EA94E09275
:1023700001010E941907811109C00E9419076BE031
:102380000E9470179093010110924C0152E05C156D
:1023900038F40E9419078F7119F4CA94C092000191
:1023A0000E941907D82FDF7761F40E94190766E0B1
:1023B0000E9470179093000105C0D0E003C0D1E0E7
:1023C00001C0D0E08D2FDF91CF911F910F91FF9031
:1023D000EF90DF90CF9008950F931F93CF93DF93EB
:1023E000C82F8B01D0910B0181E080936C01D33019
:1023F00019F48C2F0E94D010C83029F481E080930A
:10240000040180E0B0C0C13C41F460E070E08CE7C2
:102410009BE00E94650280E0A6C0C23C69F48D2F5B
:1024200090E0019665E070E00E94901780930B01A8
:102430000E94F60980E097C0C13BB1F5D230C0F4EC
:1024400000FD86C08D2F90E0FC01E75FFE4F2081EC
:1024500030910401231B283020F02F3F19F42EEF78
:1024600001C028E0FC01E75FFE4F208380E07BC0D5
:10247000D43009F06FC09091080180910401890F58
:10248000823020F482E08093080108C0893718F474
:102490008093080103C088E78093080180910801B8
:1024A0000E94F20780E05FC0C13E49F480910401C0
:1024B0008195809304010E94F60980E054C0C23BDC
:1024C00029F581E080930401D23088F400FD44C0F6
:1024D0008D2F90E0FC01E75FFE4F20812F3FF1F14F
:1024E000FC01E75FFE4F2F5F208380E03CC0D430CB
:1024F000B9F580910801833018F08150809308016C
:10250000809108010E94F20780E02DC0C23E21F4B4
:102510000E94F60980E027C0C53C59F460E070E0F5
:1025200088EB92E10E94650280E00E94F20780E061
:102530001AC0C130B9F40E33110519F481E080934B
:10254000040180917701080F0093770180E00BC0B0
:1025500080E009C080E007C080E005C080E003C0E3
:1025600080E001C081E0DF91CF911F910F9108952C
:10257000CF93883041F480916C018130E1F588E09F
:102580000E94EC1138C0982F9079903961F481E065
:1025900080936B01C0916C01C11127C080911C0117
:1025A0000E94F20729C0903839F410926B0180E044
:1025B0000E94F207C0E020C08130C9F4C0916B01D5
:1025C000CC2341F080916C01813099F40E94EC1190
:1025D000C82F12C06733714078F081E08093790191
:1025E00060E080E00E94E00A07C0C0E005C0C1E0F2
:1025F00003C0C0E001C0C1E08C2FCF910895CF93FC
:10260000DF93C82FD62F8823B9F080911C010E9438
:10261000F20788EC90E00E948508DD2321F080E934
:1026200091E00E94850880E00E94F20788EC90E02B
:102630000E948508C15049F7DF91CF9108950E940B
:102640006A0B0E946B0581110E949B100E949D09DC
:1026500080917401811180931C0161E070E08CE72E
:102660009BE00E941E020895CF92DF92EF92FF92AC
:102670000F931F93CF93DF9380919C0190919D01C5
:1026800021E0803D9207E1F4C0E7D0E00CE710E0E4
:10269000FE01849180530E94B1088CE291E00E9477
:1026A00085082196C017D10799F78CE79BE0909396
:1026B000A4018093A3011092A6011092A50149C123
:1026C000F1E18C3E9F0779F022E1883B920709F007
:1026D000C6C080916C01813009F02EC180916B01E0
:1026E000882309F429C1C0910B01C23009F120F0FF
:1026F000C43009F494C02DC1EC2FF0E0E75FFE4F29
:10270000D08186E90E94F207C11105C084E090E003
:102710000E94850805C08D2F869590E00E9485084F
:1027200080E00E94F2078D2F90E00E94850811C181
:102730000E9419078F73082F10E00E94190767E0A5
:102740000E947017C1E0D0E07E0102C0EE0CFF1CB9
:102750009A95E2F70E94190765E00E94701702C07F
:10276000CC0FDD1F9A95E2F7CE0DDF1D0E941907F1
:1027700090E0BE010E949017C80FD91FC739D1053C
:1027800008F0DDC08C2F0E94F207C8010E94850866
:102790007E01F594E794F594E794F594E7948E2DF3
:1027A000E11001C081E0C230D105F4F0E82EF12C37
:1027B000C12CD12CC8010E948508CE19DF0912F462
:1027C000CC2DDD2D8C2F0E94F2070E9419078370FB
:1027D00041F4C8010E948508CE01959587950E9415
:1027E000F207C230D10534F70E9419076DE00E944C
:1027F0007017C1E0D0E002C0CC0FDD1F9A95E2F760
:102800000E94190790E0BE010E947C17C80FD91FD3
:1028100080E00E94F207CE010E9485089AC0D09104
:102820000801DD0FD73908F0D6E9C4E08D2F0E94EA
:10283000F20785E090E00E948508809108010E94DF
:10284000F20781E490E00E948508C15079F780ED9D
:1028500092E00E94850880E00E94F2077AC0F2E0D0
:1028600086379F07B1F40E94F90880911B018823E5
:1028700059F08CE79BE09093A4018093A301109200
:10288000A6011092A50165C088EE93E00E9485081C
:1028900060C022E08C39920749F480919F010E9428
:1028A000DB0888EE93E00E94850853C0EDE08B3092
:1028B0009E0771F58091A20181114BC080911C018E
:1028C0000E94F20784E690E00E94850880E00E9462
:1028D000F20780910C0190E09C01220F331F22959A
:1028E0003295307F3227207F3227281B390B220F69
:1028F000331F220F331F820F931F880F991F880FDA
:10290000991F880F991F845691090E94850821C03C
:102910008C5B924089F460E083E00E94FF1261E0EA
:1029200083E00E94FF1260E083E00E94FF1280EDCE
:1029300097E00E9485080DC00E9481060AC086E9C2
:102940000E94F207C8010E948508C6E9D0E082E132
:102950002DCFDF91CF911F910F91FF90EF90DF90DE
:10296000CF900895F89485B7877F85BF88ED90E074
:102970000FB6F894A8958FBD90B7977F90BF0FBE04
:1029800088E08CB988EF80BB83EA8093720081E095
:102990008093710084E082BB87BD8CB788608CBF58
:1029A0000E94580585E084B910928001109281013F
:1029B00083B1886483B9E1E6F0E08081816080833F
:1029C000139A86EE83B9789481E00E94740360E0E4
:1029D00070E08FE395E10E941E02109276010E9442
:1029E0001F130E9427038091A3019091A4010097D7
:1029F00051F06091A5017091A6010E9465021092AC
:102A0000A4011092A30180917901882329F080E02C
:102A10000E94F2070E942D060E947A081092760109
:102A20000E943413DECF80919C0190919D0121E1A1
:102A30008C3E920739F469E170E080E89EE00E94E4
:102A40006502089580589E4099F4909178019230E3
:102A500040F0892F869596959695890F0E94980942
:102A6000089560E070E08CE79BE00E9465020895A5
:102A700060E070E08CE79BE00E946502089584307E
:102A800021F40E94131580E0089581E008955058C4
:102A9000BB27AA270E945F150C94B0160E94A216AD
:102AA00038F00E94A91620F039F49F3F19F426F45B
:102AB0000C949F160EF4E095E7FB0C949916E92F01
:102AC0000E94C11658F3BA17620773078407950767
:102AD00020F079F4A6F50C94E3160EF4E0950B2E95
:102AE000BA2FA02D0B01B90190010C01CA01A00160
:102AF0001124FF27591B99F0593F50F4503E68F1BB
:102B00001A16F040A22F232F342F4427585FF3CFFB
:102B1000469537952795A795F0405395C9F77EF4CC
:102B20001F16BA0B620B730B840BBAF09150A1F015
:102B3000FF0FBB1F661F771F881FC2F70EC0BA0F9B
:102B4000621F731F841F48F4879577956795B79523
:102B5000F7959E3F08F0B0CF9395880F08F099271E
:102B6000EE0F9795879508950E94C8150C94B0169E
:102B70000E94A91658F00E94A21640F029F45F3F67
:102B800029F00C94991651110C94E4160C949F168C
:102B90000E94C11668F39923B1F3552391F3951B55
:102BA000550BBB27AA2762177307840738F09F5F6E
:102BB0005F4F220F331F441FAA1FA9F335D00E2EDB
:102BC0003AF0E0E832D091505040E695001CCAF748
:102BD0002BD0FE2F29D0660F771F881FBB1F26170B
:102BE00037074807AB07B0E809F0BB0B802DBF01E2
:102BF000FF2793585F4F3AF09E3F510578F00C94B1
:102C000099160C94E4165F3FE4F3983ED4F386954E
:102C100077956795B795F7959F5FC9F7880F911DD1
:102C20009695879597F90895E1E0660F771F881FBD
:102C3000BB1F621773078407BA0720F0621B730B70
:102C4000840BBA0BEE1F88F7E09508950E942D16AD
:102C50006894B1110C94E41608950E94C91688F086
:102C60009F5798F0B92F9927B751B0F0E1F0660F50
:102C7000771F881F991F1AF0BA95C9F714C0B13091
:102C800091F00E94E316B1E008950C94E316672FCB
:102C9000782F8827B85F39F0B93FCCF386957795C0
:102CA0006795B395D9F73EF49095809570956195A9
:102CB0007F4F8F4F9F4F0895E89409C097FB3EF4D4
:102CC00090958095709561957F4F8F4F9F4F992379
:102CD000A9F0F92F96E9BB279395F69587957795F7
:102CE0006795B795F111F8CFFAF4BB0F11F460FFB7
:102CF0001BC06F5F7F4F8F4F9F4F16C0882311F00F
:102D000096E911C0772321F09EE8872F762F05C022
:102D1000662371F096E8862F70E060E02AF09A95BD
:102D2000660F771F881FDAF7880F9695879597F9B2
:102D3000089597F99F6780E870E060E008959FEF3D
:102D400080EC089500240A94161617061806090642
:102D5000089500240A941216130614060506089511
:102D6000092E0394000C11F4882352F0BB0F40F499
:102D7000BF2B11F460FF04C06F5F7F4F8F4F9F4FD9
:102D8000089557FD9058440F551F59F05F3F71F05B
:102D90004795880F97FB991F61F09F3F79F08795C2
:102DA0000895121613061406551FF2CF4695F1DF4B
:102DB00008C0161617061806991FF1CF86957105DB
:102DC000610508940895E894BB2766277727CB010F
:102DD00097F908950E94FC160C94B0160E94A21652
:102DE00038F00E94A91620F0952311F00C94991642
:102DF0000C949F160C94E4160E94C11678F3992344
:102E0000C9F35523B9F3950F50E0551FAA27EE27B4
:102E1000FF27BB2700240894679520F4E20FF31FD7
:102E2000B41F0A1E220F331F441FAA1F6695A9F75D
:102E3000779530F4F30FB41F0A1E121E08F4639541
:102E4000330F441FAA1F221F769599F7879520F408
:102E5000B40F0A1E121E631F440FAA1F221F331F26
:102E60008695A9F7862F712D602D11249F5750400C
:102E70009AF0F1F088234AF0EE0FFF1FBB1F661F88
:102E8000771F881F91505040A9F79E3F510580F051
:102E90000C9499160C94E4165F3FE4F3983ED4F337
:102EA000869577956795B795F795E7959F5FC1F7F5
:102EB000FE2B880F911D9695879597F9089500240C
:102EC000552704C0080E591F880F991F009729F035
:102ED00076956795B8F37105B9F7802D952F08950C
:102EE000991B79E004C0991F961708F0961B881F5C
:102EF0007A95C9F780950895AA1BBB1B51E107C0BD
:102F0000AA1FBB1FA617B70710F0A61BB70B881F79
:102F1000991F5A95A9F780959095BC01CD01089508
:102F200097FB072E16F4009407D077FD09D00E9476
:102F30007C1707FC05D03EF4909581959F4F08952E
:102F4000709561957F4F0895E199FECF1FBA8EBBB2
:102F5000E09A99278DB30895262FE199FECF1FBAE5
:102F60008EBBE09A81500DB2021639F01CBA2DBB0F
:102F70000FB6F894E29AE19A0FBE0895F894FFCF45
:102F8000060B18010101000445294303023718000C
:102F90000505959595030303950301012C3207025E
:102FA000150112010F0102010000000000000001E4
:102FB00000000000000000000100002101230225A4
:0A2FC00003270429052C06FF060074
:00000001FF
