:100000000C946C010C9489010C9472050C94890178
:100010000C9489010C945A050C9489010C94890163
:100020000C9489010C9489010C9489010C94890128
:100030000C9489010C9489010C947E030C94890121
:100040000C9489010C9489010C9489010C94890108
:100050000C9489010C9489010C9489010C948901F8
:100060000C9489010C9489010C9489010C948901E8
:100070003230323031323239303434330001050419
:100080001410111500000000000000000000000026
:100090000000000000000000000000000000000060
:1000A0000000000000000000000000000000000050
:1000B0000000000000000000000000000000000040
:1000C0000000000000000000000000000000000030
:1000D0000000000000000000000000000000000020
:1000E0000000000000000000000000000000000010
:1000F0000000000000000000000000000000000000
:1001000000000000000000000000000000000000EF
:1001100000000000000000000000000000000000DF
:1001200000000000000000000000000000000000CF
:1001300000000000000000000000000000000000BF
:1001400000000000000000000000000000000000AF
:10015000000000000000000000000000000000009F
:10016000000000000000000000000000000000008F
:10017000000000000000000000000000000000007F
:10018000000000000000000000000000000000006F
:10019000000000000000000000000000000000005F
:1001A000000000000000000000000000000001004E
:1001B0000200030003000300030003000400040026
:1001C00004000500050006000600070007000800FF
:1001D0000800090009000A000A000B000C000D00CD
:1001E0000E000F001000110012001400150017007F
:1001F00018001A001B001D001F002100230025000D
:10020000270029002B002D00300032003500380077
:100210003A003D004000430046004A004D005000B7
:10022000540058005B005F00630067006C007000C2
:10023000740079007D00820087008C009100960098
:100240009C00A100A700AD00B200B800BF00C5002F
:10025000CB00D200D900DF00E600EE00F500FC0084
:1002600004010C0113011B0124012C0134013D0187
:1002700046014F01580161016B0174017E01880143
:1002800092019D01A701B201BD01C801D301DE01A8
:10029000EA01F60102020E021A02270233024002AC
:1002A0004D025B026802760284029202A002AF0253
:1002B000BE02CD02DC02EB02FB020A031A032B038F
:1002C0003B034C035D036E037F039103A303B5035C
:1002D000C703D903EC03FF0311241FBECFEFD4E003
:1002E000DEBFCDBF11E0A0E0B1E0ECE7FFE202C06D
:1002F00005900D92AA34B107D9F721E0AAE4B1E044
:1003000001C01D92A13FB207E1F70E94B0140C9406
:10031000BC170C940000CF93DF9300D000D000D026
:10032000CDB7DEB740911A0120919C0130919D011B
:10033000275A3A4009F442E06623F9F0823019F472
:1003400096E9961B692F96E0E0E2F1E0DE01119656
:1003500001900D929A95E1F7E82FF0E03197EE0FBA
:10036000FF1F81E090E08C0F9D1FE80FF91F0190A7
:10037000F081E02DE40FF11D608326960FB6F8940E
:10038000DEBF0FBECDBFDF91CF910895813019F44C
:1003900010927401089560937301089581E00895A7
:1003A000611160931E010895662389F0813061F424
:1003B00080919F0190917D01891B681B60937D0155
:1003C00082E080931F0103C0635E60931D018091F2
:1003D0001D01873418F086E480931D010895609311
:1003E0006D010895FF920F931F93CF93DF93EC015C
:1003F0008B01F22E20919C0130919D01232B31F035
:10040000E0919C01F0919D01842F0995D0939D016D
:10041000C0939C01CD2B39F0E0919C01F0919D019E
:10042000B8018F2D099581E080937601DF91CF91FE
:100430001F910F91FF900895DC0190917C019830FD
:1004400098F4E92FF0E0EE0FFF1FEF51FE4FB1835C
:10045000A0839F5F90937C0128E049E0CD010E943A
:10046000F20180917C0108958FEF0895CF93DF937F
:1004700080917C018823B1F0815080937C01282FEA
:1004800030E0F901EE0FFF1FEF51FE4FC081D18127
:10049000882369F0220F331FF901E152FE4F80815A
:1004A000918107C0C0E0D0E080E090E002C080E031
:1004B00090E02AE049E060E070E00E94F201CE01A5
:1004C000DF91CF9108950F931F93CF93DF93EC01AA
:1004D0008B010E943602B801CE010E941C02DF91FE
:1004E000CF911F910F910895CF93C0911B01C1111E
:1004F0001BC0813C39F460E070E08AE79BE00E9419
:10050000630215C0823C39F460E070E08AE992E051
:100510000E9463020CC0873B49F460E070E083EB0B
:100520009AE00E941C0203C0C1E001C0C1E08C2F10
:10053000CF910895813C41F460E070E08AE79BE050
:100540000E94630280E00895823C41F460E070E024
:1005500089E09DE00E94630280E00895873B41F4BA
:1005600060E070E089EB9AE00E941C0280E0089550
:1005700081E00895813C41F460E070E08AE79BE00F
:100580000E94630280E00895823C41F460E070E0E4
:1005900084E792E00E94630280E0089581E008957C
:1005A0009091A701992361F0EAEAF1E091E004C09B
:1005B0009F5F3396903189F020812111F9CF01C0DE
:1005C00090E0292F30E0290F311D290F311DF9014D
:1005D000E955FE4F8083728361830895E7EAF1E075
:1005E00024ED31E0838180838481958192838183AE
:1005F0003396E217F307B1F7E7EAF1E015A617A67D
:1006000016A608950F931F93CF93DF93D82F8B01D6
:10061000C0917C01C1508AF0EC2FEE0FFF0BEF511F
:10062000FE4F0190F081E02DB8018D2F09958823B0
:1006300031F0C1508AF781E003C081E001C080E061
:10064000DF91CF911F910F910895CF93DF93809108
:10065000A701882359F0C7EAD1E069817A810E9415
:1006600002030E94EE0288818111F7CFDF91CF91C2
:100670000895BC018091DC010E94D002089510927F
:10068000DC01109284011092830181E08093760155
:1006900008959091DC01803181F4292F20699F70A9
:1006A000892F90E00F9724F02093DC0181E00895DA
:1006B0002F5F2093DC0181E00895882329F0906862
:1006C0009093DC0180E00895892F8F7E95FD05C011
:1006D00080688093DC0181E00895806C8093DC0168
:1006E00081E008959FEF980F882339F028E13FE1DA
:1006F000F9013197F1F79150D8F708951F920F92B1
:100700000FB60F9211242F933F938F939F93AF9324
:10071000BF93EF93FF93809181018823E9F0E091EB
:10072000800120B131B1F0E0EE0FFF1FDF01A352D5
:10073000BE4F2D933C93E852FE4F808191818217EA
:10074000930708F401962817390708F40197918355
:10075000808381E08093820181E080938101FF9119
:10076000EF91BF91AF919F918F913F912F910F90FA
:100770000FBE0F901F901895BF92CF92DF92EF920D
:10078000FF920F931F93CF93DF931092820120B1BA
:1007900091B1309177012295269526952370892F66
:1007A00090E0880F991F880F991F820F911D830F6A
:1007B0008093770180917F01882309F46DC11092A5
:1007C0007F018091800190917901992319F01F9800
:1007D00010928001811140C080911F01882349F04F
:1007E0008091DD019091DE019093D9018093D80131
:1007F00004C08091D8019091D9014096807E969551
:1008000087956EE872E00E947A1780911E018750EA
:10081000680F60937E0180916A01882321F08150E6
:1008200080936A010AC06D3140F460E070E084E0BA
:100830000E94D00285E080936A0180917901811144
:100840001CC18BE084B981E080938001109281010A
:1008500083B1886483B911C1813009F00EC18091E0
:100860001F018823D1F08091DF019091E0019093E6
:10087000DB018093DA014096969587959295829553
:100880008F7089279F708927EAE5F1E02AE631E039
:1008900081939193E217F307D9F7C091DA01D091D0
:1008A000DB016096D695C795D295C295CF70CD27BE
:1008B000DF70CD27B0907D01BE01769567956D5CA8
:1008C000710980E090E00E945A1628E431EE42E877
:1008D00050E40E94B21520E030E0A9010E944615C4
:1008E0006B017C016B2D0B2C000C770B880B990B8B
:1008F0000E945C169B01AC01C701B6010E9446151F
:100900000E9424166B017093A00160939F01809157
:100910005901E82FF0E0EE0FFF1FE65AFE4F20814D
:1009200031817E01E21AF30AD183C0838F5F877021
:100930008093590100911D0110E0C701880F991F94
:10094000880F991FC80FD91FB8016B197109B7FC1F
:100950007395072E000C880B990B0E945C1628E4F7
:1009600031EE42E850E40E94E81620E030E04DE429
:1009700053E40E9446150E942B16660F771FCE0186
:10098000861B970B23E01816190614F4019703C071
:1009900099230CF401962150B1F718161906D4F5D5
:1009A000FF200CF474C020915801121624F4281B67
:1009B0002093580159C0880F991F03979C01220F5B
:1009C000331F820F931FBC01660F771F62957295CC
:1009D000707F7627607F762792FF02C061587F4F35
:1009E000660F672F661F770B1616170614F061E067
:1009F00070E080E1861B80935801095F1F4FC0168D
:100A0000D10624F480917801863971F185E00E9445
:100A1000D0022AC09C012C5F3F4FEAF4FF20DCF497
:100A20002091580122232CF42450281B2093580194
:100A30001BC02CEE281B2093580120917E012F31E2
:100A400098F06CEF7FEF681B790B7595679586E0E2
:100A50000E94D00209C080917E018E3128F060E0B2
:100A600070E087E00E94D00285E084B91092800196
:100A70001092810183B1886483B980911F0188231A
:100A800059F080911F01815080931F0105C09C0186
:100A90002C5F3F4F02F7C4CFDF91CF911F910F9191
:100AA000FF90EF90DF90CF90BF900895A89580E4DD
:100AB00080BF08951F920F920FB60F9211248F934B
:100AC00081E080937B018F910F900FBE0F901F905C
:100AD00018958FB182FB882780F991E08927809350
:100AE000A20108951F920F920FB60F9211248F93B7
:100AF00081E080937A018F910F900FBE0F901F902D
:100B000018958093A201882341F080E10E94490357
:100B100080E090E00E94390309C080E00E94490310
:100B200080918301909184010E9439031092840185
:100B3000109283010895CF93DF9310927B018091EF
:100B40008301909184019C012F5F3F4F882790780B
:100B5000822B932B9093840180938301C091A201F7
:100B60000E946905C81721F0109279010E94810541
:100B7000C0918301D0918401809179018823F9F09B
:100B8000BE0183E00E94D0020E942503CF73DD27BF
:100B9000CD2B09F05DC01092570185E084B9109209
:100BA00080011092810183B1886483B9E1E6F0E0AD
:100BB000808181608083139A86EE83B939C08091E9
:100BC000DC01807F803B31F460E070E081E00E94D6
:100BD000D00204C0BE0181E00E94D0028091DC01FD
:100BE00084FF14C085FF04C0CE010E94390320C0D9
:100BF0006897F0F0109284011092830180628093D4
:100C0000DC0180E090E00E94390312C0882381F06B
:100C100085FF03C00E943F030BC0629748F08064C9
:100C20008093DC0180E090E00E9439030E943F0342
:100C300080915701811106C083B1886483B981E036
:100C400080937F01809157018F5F8F71809357014F
:100C5000DF91CF910895CF93A89583E480BF1F982B
:100C60000E9469058111FCCF0E943F038CB7886008
:100C70008CBF1092820110927B0110927A01C1E028
:100C80001FC086B78F79806486BF86B7806186BFB4
:100C9000889586B78F7E86BF80917A0181111092E8
:100CA000790180918201882331F0C0931F01C093A4
:100CB0007F010E94BC0380917B0181110E949B05F2
:100CC000809179018111DDCF82E080931F018CB783
:100CD000877F8CBF85E084B91092800110928101DA
:100CE00083B1886483B9E1E6F0E08081816080832C
:100CF000139A86EE83B90E945605CF91089586B760
:100D00008F7986BF86B7806186BF889586B78F7ECC
:100D100086BF08955091A10180917801581718F469
:100D20005FEF580F04C0851710F451E0580F4FEFD4
:100D3000450F453910F48F9A01C08F98842F90E0A9
:100D4000880F991FBC0162557E4FFB01259134919C
:100D5000E09178014E1788F4E0916A00F0916B0001
:100D6000EF2B59F42F3F43E0340739F42FEF33E0F2
:100D700030936B0020936A001FC0E0916A00F091ED
:100D80006B00E217F30748F4EAE6F0E020813181D6
:100D90002F5F3F4F318320830FC0E0916A00F091B5
:100DA0006B002E173F0740F4EAE6F0E02081318126
:100DB00021503109318320838C579F4FFC012591AD
:100DC0003491E0916C00F0916D00E217F30748F464
:100DD000ECE6F0E0208131812F5F3F4F31832083AB
:100DE0000FC0E0916C00F0916D002E173F0740F4AA
:100DF000ECE6F0E0208131812150310931832083FC
:100E0000A0916A00B0916B00FB0125913491A2176B
:100E1000B30761F420916C0030916D00FC01859165
:100E200094912817390711F4509378010895E091AF
:100E30000601F09107013196FB70F460F093070111
:100E4000E0930601809177018B5A80937701E491BA
:100E5000809177018E0F0895EF92FF920F931F9369
:100E6000CF93DF9382E00E947203F89480E890E0D1
:100E70000E94A217853A19F0789480E017C00F2ECF
:100E8000FCE9EF2EF1E0FF2EF02DC5E8D1E001E8FE
:100E900010E005581140C8018C0F9D1F0E94A21739
:100EA0008993CE15DF05B9F7789481E0DF91CF9172
:100EB0001F910F91FF90EF900895EF92FF920F9383
:100EC0001F93CF93DF9382E00E947203F8940F2E5A
:100ED000FCE9EF2EF1E0FF2EF02DC5E8D1E000E8AF
:100EE00010E0055811406991C8018C0F9D1F0E94A8
:100EF000AA17CE15DF05B9F765EA80E890E00E94F1
:100F0000AA177894DF91CF911F910F91FF90EF90E6
:100F100008950F931F93CF93DF9300D01F92CDB707
:100F2000DEB795E0998394E09A8393E09B83FE017A
:100F3000319640E050E090E061E070E0A1919A01CC
:100F4000220F331F8C0102C0159507952A95E2F7F1
:100F50009801237019F0213099F024C0B0B39B019F
:100F600002C0220F331FAA95E2F720953B2F3223B0
:100F700030BB32B3322332BB31B3232321BB22C077
:100F8000B0B39B0102C0220F331FAA95E2F7322FA4
:100F900030953B2330BB32B3322B32BB31B3232BE2
:100FA00021BB10C0B0B39B0102C0220F331FAA9512
:100FB000E2F73B2F322B30BB32B3322B32BB31B393
:100FC000232B21BB4F5F5F4F4330510509F0B6CF54
:100FD0000F900F900F90DF91CF911F910F91089577
:100FE000CF93C82F809378018093A10180917901DC
:100FF000811102C00E948907C1110AC010926B00C2
:1010000010926A0010926D0010926C008F981CC0B4
:10101000C150C53910F48F9A01C08F988C2F90E081
:10102000880F991FFC01E255FE4F259134913093B2
:101030006B0020936A00FC01EC57FF4F859194915F
:1010400090936D0080936C00CF910895883041F4A7
:101050001092D7011092500180E00E94F00737C033
:10106000813031F580915001811109C060327105E4
:1010700070F181E0809350010E943F0328C08130CD
:10108000A1F46B3B710538F082E08093500180E061
:101090000E94F0071CC061157105C9F06270862FAF
:1010A000880F8E5E0E94F00712C00E9436020FC0A9
:1010B000813869F481E0809350018091D7018F5F7E
:1010C0008093D7010E943F038AE40E94F00780E0EA
:1010D0000895982F990F88230CF49095892F0895DF
:1010E000F89488ED8FBD88E880BF7894A895FFCFED
:1010F0008091820181110E94BC0380917B0181114A
:101100000E949B050895FF920F931F93CF93DF9347
:101110000097D1F0F0907601F11019C0EC0108E0D1
:1011200017E005C0809176012197811111C0C80197
:101130000197F1F70E9478080E942503C130D1057C
:1011400089F7FF24F39404C0FF24F39401C0F12C29
:101150008F2DDF91CF911F910F91FF900895CF9325
:10116000C82F8823A9F088E10E94F00786EA90E062
:101170000E94830880E00E94F0078AEF90E00E94BE
:101180008308C15081F78AE992E00E9483080FC06A
:1011900088E10E94F00788E090E00E94830880E0E8
:1011A0000E94F0078AEF90E00E948308ECCFCF9175
:1011B0000895CF93DF9364E60E946E17282F892F3E
:1011C0006AE00E946E17C82FD92F222351F0822F78
:1011D0000E94AF088C2F0E94AF088D2F0E94AF088D
:1011E00003C08111F7CFF9CFDF91CF91089580919E
:1011F0007E010E94D908089580911A0190911B01E7
:10120000911182E090E0FC01EB5EFE4F2081209383
:101210001901FC01EE5EFE4F808180931801089554
:10122000BF92CF92DF92EF92FF920F931F93CF93D3
:10123000DF93EC010E94FC082091190160911801D4
:10124000E0911B01F0E0E15FFE4FD18080911A0137
:10125000882351F091E0D91207C0822F90E0860FC9
:10126000911D9595879558C0422F50E0C417D5071A
:101270000CF449C0462F50E04C175D070CF445C0F4
:10128000811102C08C2F48C0062F021BED2DF0E00B
:101290003197802F90E0BF010E948E17E62E609359
:1012A0009E01DD20A1F110E0CE2EBF2E622FAE01F7
:1012B000421B5109E694F12CCA01992324F4882792
:1012C0009927841B950BE816F9061CF5F80130E008
:1012D00015C0CF016C2D7B2D0E947A17620FAE01D5
:1012E000461B5109E00FF11FCA01992324F48827F6
:1012F0009927841B950BE816F9066CF43F5FD3120F
:10130000E8CF862F09C0822F07C0862F05C0822F05
:1013100003C0822F01C0862FDF91CF911F910F91C3
:10132000FF90EF90DF90CF90BF900895809375016C
:101330000E94F0070895CF93DF930E942C07882323
:1013400009F44FC0E5E8F1E0808180931A01C5E11E
:10135000D1E08181888362E171E08281DB018C933D
:1013600083818983848111968C938FE091E025811C
:10137000DC0111962C932681209374012781209300
:101380007301208520930B0129E031E04185D901CB
:101390004C93428511964C93238520930801248514
:1013A00020930C01258520931B0126852A83278500
:1013B000DB0112962C932089DC0112962C938189F3
:1013C00080931D01828980937D01838980931E0112
:1013D000848980930E01858980930D01868980938D
:1013E0006D01DF91CF910895CF93DF93E5E8F1E0B0
:1013F00080911A018083C5E1D1E08881818362E117
:1014000071E0DB018C9182838981838311968C91B9
:1014100084838FE091E0DC0111962C91258320914B
:101420007401268320917301278320910B0120876B
:1014300029E031E0D9014C91418711962C91228706
:1014400020910801238720910C01248720911B0102
:1014500025872A812687DB0112962C912787DC01BC
:1014600012968C91808B80911D01818B80917D01E2
:10147000828B80911E01838B80910E01848B8091E1
:101480000D01858B80916D01868B0E945D07DF9138
:10149000CF910895883099F41092510180E00E9414
:1014A000F0078091A201811148C081E08093510131
:1014B00060E070E086E298E00E941C023EC0982F37
:1014C000907F903BE1F4209151014217A0F0CB01B5
:1014D0006DE570E00E947A17029749F42F5F209320
:1014E0005101421750F187E30E94F00726C082E1C4
:1014F0000E94F00722C080E00E94F0071EC0903ECC
:1015000081F480915101882349F0481738F060E058
:1015100070E086E298E00E941C020FC00E94360232
:101520000CC08A3051F46091D70180915101F901CA
:1015300009950E94F4090E94360280E008954091C6
:101540001A014E5F2BE831E00E944A0A08952BE809
:1015500031E043E00E944A0A089526EC31E042E07F
:101560000E944A0A089520ED31E041E00E944A0AB3
:10157000089524ED31E042E00E944A0A08952FEEDA
:1015800031E041E00E944A0A089540917E014D31C8
:1015900098F080E08E5F282F30E0F901E75CFE4F85
:1015A00090814917B8F7F901E85CFE4FE081F0E05F
:1015B000E358FF4F8491089580E008950F931F939F
:1015C000CF9390917E0191509C3120F480E00E9455
:1015D00089077AC0C82FC295CF708F70909179011A
:1015E000911103C0C33008F0C2E0873030F4E82F17
:1015F000F0E0E358FF4FE4914CC08730D1F4009104
:101600004F0110E00F5F1F4F0E94170765E00E9417
:101610006E179801290F311DC90166E070E00E9424
:101620008E1780934F01FC01FF27E358FF4FE49191
:1016300030C08830D1F480917901882311F08FE097
:1016400001C083E0682351F480914F0190E001963E
:1016500066E070E00E948E1780934F01E0914F0189
:10166000F0E0E358FF4FE49114C0809179018823A2
:1016700021F00E94C50AE82F0CC0862F869563E0F2
:101680000E946E17E92FF0E0EE0FFF1FE358FF4FA7
:10169000E491C33079F480914E0190E0019663E1CA
:1016A00070E00E947A1780934E019927DC01AA5DB1
:1016B000BE4FCC91CC2321F0C13019F0EE0F01C008
:1016C000E0E08E2F0E948907CF911F910F9108951E
:1016D000CF93C091780188E18C0F863908F080E0C3
:1016E0000E94F00782E00E9472038C2F0E94F00794
:1016F000CF9108950F931F93CF938B01883091F46E
:1017000080E00E94F00760E080910E010E94DE0AF6
:1017100010927101012B09F06AC181E08093790177
:10172000C0E072C1813061F46931710508F461C1B2
:101730008093790180910E010E94DE0AC0E064C1AD
:10174000833089F5709356016093550180910E01A5
:101750000E94DE0AC0911B01C1114DC180916D0133
:10176000882309F44AC190E09C0122953295307F8C
:101770003227207F3227281B390BC9018295929589
:10178000907F9827807F9827821B930B880F991F43
:101790008017910708F038C160E070E08CE39DE0AD
:1017A0000E94630231C1813BB1F481E090E00E946C
:1017B00010090E94F007C0911A01C11104C008313C
:1017C000110508F421C161E070E08EE79EE00E94FF
:1017D0006302C0E019C1813E41F461E070E08EE730
:1017E0009EE00E946302C0E00FC1813891F58091B4
:1017F0007401882329F12091730130E0A9014295F9
:101800005295507F5427407F5427421B530B9A0117
:1018100022953295307F3227207F3227241B350BCB
:10182000220F331F40915501509156014217530723
:1018300038F090E00E9410090E94F007C0E0E4C078
:1018400080911C0190E00E9410090E94F007C0E006
:10185000DBC0813C49F46091780170E08EE79EE046
:101860000E946302C0E0D0C0823B81F4C0911B01A2
:10187000CC2341F085E990E00E9410090E94F00716
:10188000C0E0C2C085E90E94F007BEC0823E29F4D4
:1018900080E00E94F007C0E0B7C0823C41F465E9F7
:1018A00070E08EE79EE00E946302C0E0ADC0833925
:1018B00029F480E00E94F007C0E0A6C0833C41F418
:1018C00060E070E084E792E00E946302C0E09CC0A8
:1018D000843C51F40E94680B60E070E08CE39DE072
:1018E0000E946302C0E090C08D3B11F40E9470081A
:1018F0008F3C41F460E070E08EEC91E00E94630266
:10190000C0E082C08A3BB1F4672B09F078C0C09177
:101910001B01CC2341F00E94680B10921B010E9416
:10192000F409C0E071C060E070E087EA9AE00E94CC
:101930001C026AC0C0911B01C11163C08A3C41F402
:101940000E94680B81E080931B010E94F4095CC037
:10195000833B39F460E070E08AEE91E10E9463021B
:1019600053C0853C49F40E94680B60E070E086EB50
:1019700092E10E94630248C0873CA9F490910E0155
:10198000892F82958F708F5F83708295807F9F7083
:10199000892B80930E0160E00E94DE0A0E94F40908
:1019A0000E94680B31C0873BD9F481E080937201BB
:1019B000CB018F739927892B69F490910E01892FA0
:1019C0008F708F5F292F207F6BE00E946E17922B04
:1019D00090930E01602F80910E010E94DE0A14C0C8
:1019E000873E89F4109272010E94F4090DC0C0E094
:1019F0000BC0C0E009C0C0E007C0C82F05C0C1E0EF
:101A000003C0C1E001C0C1E08C2FCF911F910F91A5
:101A10000895813C41F460E070E08AE79BE00E9419
:101A2000630280E00895823C41F460E070E08AEB5C
:101A300092E00E94630280E00895813B59F4CB015B
:101A40006EE370E00E947A17892B91F40E94680B74
:101A500080E00895813E71F4CB016EE370E00E9456
:101A60007A176F5F60930C010E94F40980E008957B
:101A700080E0089581E008950F931F93CF93DF9343
:101A8000C82F8B01873B49F480E00E94F0078091CA
:101A90001B01882309F499C0BBC080798039D1F437
:101AA000909115018C2F8F70823059F4209116017E
:101AB0008091740181110BC0892F921740F4822FFD
:101AC00006C020911601892F291708F4822F0E9441
:101AD000F00705C0803819F480E00E94F007C83094
:101AE00039F460E080910D010E94DE0AD1E097C0D8
:101AF000C13071F40931110508F48CC081E0809384
:101B00007901602F80910D010E94DE0AD0E087C02C
:101B1000C33039F4602F80910D010E94DE0AD0E0BD
:101B20007EC0C43CA1F4D0917401DD2341F06D2F3F
:101B300070E08EE79EE00E946302D0E070C060918A
:101B40001C0170E08EE79EE00E94630268C0C43B07
:101B500061F40E94680B1092DC0161E070E08EE796
:101B60009EE00E946302D0E05AC0C53C41F465E9A2
:101B700070E08EE79EE00E946302D0E050C0D091FA
:101B80001B01D11149C0CA3B39F460E070E08FEB12
:101B90009AE00E941C0243C0C73CA9F490910D0139
:101BA000892F82958F708F5F83708295807F9F7061
:101BB000892B80930D0160E00E94DE0A0E94F409E7
:101BC0000E94680B2CC0C73BE1F481E08093720156
:101BD000C8018F739927892B69F490910D01892F82
:101BE0008F708F5F292F207F6BE00E946E17922BE2
:101BF00090930D01602F80910D010E94DE0AD0E0CC
:101C00000EC0C73E59F4109272010E94F40907C039
:101C1000D1E005C0D0E003C0D1E001C0D1E08D2FFC
:101C2000DF91CF911F910F910895CF93C0917801CB
:101C300080E00E94F00783E00E9472038C2F0E94D4
:101C4000F007CF910895CF93C0911B01C1114CC0F3
:101C5000883039F41092710110926F0110926E0168
:101C60004AC0813B61F48091710181508330F0F56D
:101C700083E08093710180937001C1E03CC0853B9B
:101C8000B9F4CB016EE370E00E947A17892B99F5C5
:101C9000809171018A3F78F58B5F80937101809309
:101CA000700110926F0110926E010E94680B23C0A8
:101CB0008130F1F480916E0190916F010196883826
:101CC0002EE0920728F490936F0180936E0113C069
:101CD00010926F0110926E0180917101882351F072
:101CE00081508093710107C0C1E005C0C1E003C00D
:101CF000C1E001C0C82F8C2FCF910895CF92DF9201
:101D0000EF92FF920F931F93CF93DF93C82F8B0116
:101D1000D0911901E090180180911A01882319F0DF
:101D2000C0909E0102C0CC24C394F0907101B80110
:101D30008C2F0E94230ED0907101DD2009F4DCC1AC
:101D4000F1100CC0809178018093540107C060E0CD
:101D500070E08AE79BE00E946302E1C1C83009F4A9
:101D6000CFC1CA30B9F4CFC18D2F90E08017910751
:101D700038F48E2D90E00817190710F400931C0119
:101D8000C8010E9410090E94960981E08093050114
:101D9000D12CC5C1C13C41F460E070E08AE79BE012
:101DA0000E946302D12CBBC1C23CE1F480911C01B2
:101DB0008E1540F090911B01911104C00F2EF5E992
:101DC000EF2EF02D909178019E1520F48E2D0E941B
:101DD000960902C00E94960980917801809354016F
:101DE000D12C9DC1C43C59F480E00E94F00760E012
:101DF00070E08CE39DE00E946302D12C90C18FE4DF
:101E00008C0F823008F061C080911A01882341F064
:101E1000C80168E170E00E947A17892B09F05AC165
:101E200001151105A1F4C23B21F48FEF8093050148
:101E300029C0809178018E1520F08FEF80930501E5
:101E400021C0D817F8F081E0809305011BC007334B
:101E500081E0180740F0809178018E1520F08FEF17
:101E6000809305010FC00D36124060F0809178011B
:101E7000D81740F00E94680B60E070E08CE39DE0B2
:101E80000E946302809105016C2D70E0082E000C09
:101E9000990B0E945D1720917801820F911D0E947D
:101EA000100980931C0190917801891721F0E812A4
:101EB00002C00E94150E80911C010E94960980911B
:101EC000780180935401D12C2AC18FE18C0F82308C
:101ED00038F480910501819580930501D12C1FC1B3
:101EE000C13009F050C00E33110519F481E0809320
:101EF0000501DD20A9F0809154016D2D70E0615045
:101F0000710990E00E945D176091700170E00E947D
:101F10008E17611101C061E06093A10160937501AA
:101F2000209178018091A10190E0821B910960913C
:101F30005201709153016F5F7F4F70935301609313
:101F40005201009709F4C8C00CF0E3C0253708F42B
:101F5000E3C040E450E0569547959C01992314F462
:101F60002F5F3F4FC901959587950097A1F74617B9
:101F7000570708F0B3C00E948A06109253011092CE
:101F80005201D12CCCC0C530F1F420917801263417
:101F900008F4A6C0822F90E0801B910B382F853467
:101FA00091052CF08639910518F035E901C035E42A
:101FB000263929F485E90E94F007D12CB0C030936E
:101FC000A101D12CACC0C630C1F4909178018091B0
:101FD0007501981708F086C0090F111D90E0801751
:101FE00091073CF0053411051CF485E490E001C034
:101FF000C8018093A101D12C92C0C73099F490916F
:10200000A10180917801891728F48F5F8093A10145
:10201000D12C85C0981708F067C081508093A1012A
:10202000D12C7DC0D0901B01D11060C0C33CC9F43D
:1020300081E090911A01911180E080931A010E9431
:10204000F4090E94150E8091780190E00E94100919
:1020500080931C010E94960980917801809354011D
:102060005EC0C33B39F4012B09F059C085E90E94D9
:10207000960955C0C33E29F480911C010E9496091F
:102080004EC0C53C51F480E00E94F00760E070E073
:1020900086EB92E10E94630242C0C73B39F460E0E4
:1020A00070E08FE99AE00E941C0239C0CA3C49F4F2
:1020B00080917801809374010E94F4090E94680B5A
:1020C0002EC0CA3BB1F460E070E08DEA9AE00E9455
:1020D0001C0225C0D12C23C0D12C21C0D12C1FC063
:1020E000D12C1DC0D12C1BC0D12C19C0DD24D39400
:1020F00016C0DD24D39413C0FF2009F42FCE27CEC1
:1021000010926C0131CE10926C0100911C0110E014
:102110002BCE40E052E01FCF40E051E01CCF8D2D90
:10212000DF91CF911F910F91FF90EF90DF90CF90B3
:102130000895CF93C0E08C2F0E94F00783E190E0D8
:102140000E9483088C2F86950E94F00783E190E01F
:102150000E9483080E9469058823E1F0CF5FC034A4
:1021600051F714C08C2F0E94F00784E090E00E9489
:102170008308C150B9F710C08C2F0E94F0078DE082
:1021800090E00E948308C150B9F706C00E94F4098C
:10219000C5E9E8CFC111F0CFCF910895CF92DF927A
:1021A000EF92FF920F931F93CF93DF93C82F8B0172
:1021B000D09171010E94230EDD2359F0D09171015D
:1021C000D11107C060E070E08AE79BE00E946302E3
:1021D000F7C0C83029F481E080930301D0E0F0C05B
:1021E000C23C21F410927101D0E0EAC0C13B21F55C
:1021F000012B69F4809102018D3620F08FEF8093DE
:10220000030105C0823018F481E080930301D0916E
:10221000020180910301D80F21F481E08093020133
:10222000CFC0DE3620F4D0930201D0E0C9C08DE6E5
:1022300080930201D0E0C4C0C13E39F48091030113
:10224000819580930301D0E0BBC0C23B69F481E07B
:102250008093030180910201823008F4ACC0815068
:1022600080930201D0E0ACC0C13009F0A6C00E33AB
:10227000110519F481E080930301D0904D018D2D5B
:102280000E946908C82FD0914C018D2F0E946908C7
:10229000E09001012C2F30E0A901440F551F440F9D
:1022A000551F440F551FBA01621B730B9B016E2D06
:1022B00070E090E00E945D17F92EF30EC0914B0183
:1022C0008C2F0E946908C09000016C2D70E090E096
:1022D0000E945D179F0D6091020170E0690F711DF2
:1022E000809171018130B9F480916E0190916F01FC
:1022F00096958795929582958F7089279F708927EB
:1023000024E730E0A901481B590BCA010E945D1760
:10231000B9010E947A17862F0E94F00700FD06C0BF
:102320000E9417078170D80ED0924D0180914A010A
:10233000D80FD0934C010E94170765E20E946E17D8
:10234000C90FC0934B010E9417078F7339F40E9485
:1023500017076DE00E946E1790934A01EE2039F046
:102360000E9417078F7319F4EA94E09201010E940A
:102370001707811109C00E9417076BE00E946E17B2
:102380009093010110924C0152E05C1538F40E94C8
:1023900017078F7119F4CA94C09200010E941707A1
:1023A000D82FDF7761F40E94170766E00E946E174E
:1023B0009093000105C0D0E003C0D1E001C0D0E09F
:1023C0008D2FDF91CF911F910F91FF90EF90DF90B4
:1023D000CF9008950F931F93CF93DF93C82F8B0156
:1023E000D0910B0181E080936C01D33019F48C2FD4
:1023F0000E94CE10C83029F481E08093040180E06F
:10240000B0C0C13C41F460E070E08AE79BE00E940C
:10241000630280E0A6C0C23C69F48D2F90E0019673
:1024200065E070E00E948E1780930B010E94F40912
:1024300080E097C0C13BB1F5D230C0F400FD86C04A
:102440008D2F90E0FC01E75FFE4F20813091040169
:10245000231B283020F02F3F19F42EEF01C028E075
:10246000FC01E75FFE4F208380E07BC0D43009F0A1
:102470006FC09091080180910401890F823020F48F
:1024800082E08093080108C0893718F4809308011E
:1024900003C088E780930801809108010E94F0073B
:1024A00080E05FC0C13E49F4809104018195809332
:1024B00004010E94F40980E054C0C23B29F581E088
:1024C00080930401D23088F400FD44C08D2F90E049
:1024D000FC01E75FFE4F20812F3FF1F1FC01E75F38
:1024E000FE4F2F5F208380E03CC0D430B9F580914F
:1024F0000801833018F08150809308018091080111
:102500000E94F00780E02DC0C23E21F40E94F40931
:1025100080E027C0C53C59F460E070E086EB92E1B2
:102520000E94630280E00E94F00780E01AC0C13080
:10253000B9F40E33110519F481E080930401809100
:102540007701080F0093770180E00BC080E009C09D
:1025500080E007C080E005C080E003C080E001C0EB
:1025600081E0DF91CF911F910F910895CF93883033
:1025700041F480916C018130E1F588E00E94EA111C
:1025800038C0982F9079903961F481E080936B0185
:10259000C0916C01C11127C080911C010E94F007FD
:1025A00029C0903839F410926B0180E00E94F00746
:1025B000C0E020C08130C9F4C0916B01CC2341F050
:1025C00080916C01813099F40E94EA11C82F12C0E9
:1025D0006733714078F081E08093790160E080E0BA
:1025E0000E94DE0A07C0C0E005C0C1E003C0C0E031
:1025F00001C0C1E08C2FCF910895CF93DF93C82FF6
:10260000D62F8823B9F080911C010E94F00788EC36
:1026100090E00E948308DD2321F080E991E00E9490
:10262000830880E00E94F00788EC90E00E94830815
:10263000C15049F7DF91CF9108950E94680B0E9425
:10264000690581110E9499100E949B098091740173
:10265000811180931C0161E070E08AE79BE00E9499
:102660001C020895CF92DF92EF92FF920F931F9377
:10267000CF93DF9380919C0190919D0121E08E3C4E
:102680009207E1F4C0E7D0E00CE710E0FE0184918E
:1026900080530E94AF088CE291E00E94830821964B
:1026A000C017D10799F78AE79BE09093A401809324
:1026B000A3011092A6011092A50149C1F1E18A3E41
:1026C0009F0779F022E1863B920709F0C6C080910E
:1026D0006C01813009F02EC180916B01882309F4CF
:1026E00029C1C0910B01C23009F120F0C43009F4B6
:1026F00094C02DC1EC2FF0E0E75FFE4FD08185E95B
:102700000E94F007C11105C084E090E00E94830898
:1027100005C08D2F869590E00E94830880E00E947E
:10272000F0078D2F90E00E94830811C10E941707C7
:102730008F73082F10E00E94170767E00E946E1742
:10274000C1E0D0E07E0102C0EE0CFF1C9A95E2F7DA
:102750000E94170765E00E946E1702C0CC0FDD1FB4
:102760009A95E2F7CE0DDF1D0E94170790E0BE019B
:102770000E948E17C80FD91FC639D10508F0DDC0D9
:102780008C2F0E94F007C8010E9483087E01F594F7
:10279000E794F594E794F594E7948E2DE11001C049
:1027A00081E0C230D105F4F0E82EF12CC12CD12CFF
:1027B000C8010E948308CE19DF0912F4CC2DDD2D4B
:1027C0008C2F0E94F0070E941707837041F4C80104
:1027D0000E948308CE01959587950E94F007C2302C
:1027E000D10534F70E9417076DE00E946E17C1E013
:1027F000D0E002C0CC0FDD1F9A95E2F70E941707C8
:1028000090E0BE010E947A17C80FD91F80E00E9495
:10281000F007CE010E9483089AC0D0910801DD0F15
:10282000D63908F0D5E9C4E08D2F0E94F00785E085
:1028300090E00E948308809108010E94F00781E4E3
:1028400090E00E948308C15079F780ED92E00E94E9
:10285000830880E00E94F0077AC0F2E084379F0787
:10286000B1F40E94F70880911B01882359F08AE790
:102870009BE09093A4018093A3011092A601109273
:10288000A50165C088EE93E00E94830860C022E045
:102890008A39920749F480919F010E94D90888EEF5
:1028A00093E00E94830853C0EDE089309E0771F5E4
:1028B0008091A20181114BC080911C010E94F00700
:1028C00084E690E00E94830880E00E94F0078091F7
:1028D0000C0190E09C01220F331F22953295307F2E
:1028E0003227207F3227281B390B220F331F220F5C
:1028F000331F820F931F880F991F880F991F880F0E
:10290000991F845691090E94830821C08A5B9240D6
:1029100089F460E083E00E94FD1261E083E00E94A0
:10292000FD1260E083E00E94FD1280ED97E00E94BE
:1029300083080DC00E947F060AC085E90E94F00747
:10294000C8010E948308C5E9D0E082E12DCFDF9164
:10295000CF911F910F91FF90EF90DF90CF9008954E
:10296000F89485B7877F85BF88ED90E00FB6F8941F
:10297000A8958FBD90B7977F90BF0FBE88E08CB9A8
:1029800088EF80BB83EA8093720081E080937100BE
:1029900084E082BB87BD8CB788608CBF0E945605DF
:1029A00085E084B9109280011092810183B188641E
:1029B00083B9E1E6F0E0808181608083139A86EE3E
:1029C00083B9789481E00E94720360E070E08DE347
:1029D00095E10E941C02109276010E941D130E9434
:1029E00025038091A3019091A401009751F060917B
:1029F000A5017091A6010E9463021092A401109299
:102A0000A30180917901882329F080E00E94F007DA
:102A10000E942B060E947808109276010E943213C1
:102A2000DECF80919C0190919D0121E18A3E920729
:102A300039F468E170E08EE79EE00E946302089539
:102A40008E579E4099F490917801923040F0892FF2
:102A5000869596959695890F0E949609089560E04F
:102A600070E08AE79BE00E946302089560E070E0F6
:102A70008AE79BE00E9463020895843021F40E945B
:102A8000111580E0089581E008955058BB27AA27CA
:102A90000E945D150C94AE160E94A01638F00E949C
:102AA000A71620F039F49F3F19F426F40C949D16D4
:102AB0000EF4E095E7FB0C949716E92F0E94BF16E1
:102AC00058F3BA17620773078407950720F079F463
:102AD000A6F50C94E1160EF4E0950B2EBA2FA02D5E
:102AE0000B01B90190010C01CA01A0011124FF27BB
:102AF000591B99F0593F50F4503E68F11A16F040B6
:102B0000A22F232F342F4427585FF3CF46953795B4
:102B10002795A795F0405395C9F77EF41F16BA0B79
:102B2000620B730B840BBAF09150A1F0FF0FBB1F27
:102B3000661F771F881FC2F70EC0BA0F621F731F70
:102B4000841F48F4879577956795B795F7959E3FCD
:102B500008F0B0CF9395880F08F09927EE0F97955E
:102B6000879508950E94C6150C94AE160E94A7166C
:102B700058F00E94A01640F029F45F3F29F00C9411
:102B8000971651110C94E2160C949D160E94BF16D4
:102B900068F39923B1F3552391F3951B550BBB278C
:102BA000AA2762177307840738F09F5F5F4F220FD1
:102BB000331F441FAA1FA9F335D00E2E3AF0E0E8C8
:102BC00032D091505040E695001CCAF72BD0FE2F12
:102BD00029D0660F771F881FBB1F261737074807A6
:102BE000AB07B0E809F0BB0B802DBF01FF2793585E
:102BF0005F4F3AF09E3F510578F00C9497160C9475
:102C0000E2165F3FE4F3983ED4F386957795679597
:102C1000B795F7959F5FC9F7880F911D9695879592
:102C200097F90895E1E0660F771F881FBB1F6217B1
:102C300073078407BA0720F0621B730B840BBA0B6F
:102C4000EE1F88F7E09508950E942B166894B11145
:102C50000C94E21608950E94C71688F09F5798F0CA
:102C6000B92F9927B751B0F0E1F0660F771F881F91
:102C7000991F1AF0BA95C9F714C0B13091F00E94AB
:102C8000E116B1E008950C94E116672F782F88279C
:102C9000B85F39F0B93FCCF3869577956795B395D2
:102CA000D9F73EF490958095709561957F4F8F4F41
:102CB0009F4F0895E89409C097FB3EF49095809546
:102CC000709561957F4F8F4F9F4F9923A9F0F92FF2
:102CD00096E9BB279395F695879577956795B79570
:102CE000F111F8CFFAF4BB0F11F460FF1BC06F5F56
:102CF0007F4F8F4F9F4F16C0882311F096E911C068
:102D0000772321F09EE8872F762F05C0662371F088
:102D100096E8862F70E060E02AF09A95660F771F9C
:102D2000881FDAF7880F9695879597F9089597F990
:102D30009F6780E870E060E008959FEF80EC089561
:102D400000240A941616170618060906089500248A
:102D50000A9412161306140605060895092E039404
:102D6000000C11F4882352F0BB0F40F4BF2B11F478
:102D700060FF04C06F5F7F4F8F4F9F4F089557FDD7
:102D80009058440F551F59F05F3F71F04795880FD9
:102D900097FB991F61F09F3F79F087950895121670
:102DA00013061406551FF2CF4695F1DF08C016161C
:102DB00017061806991FF1CF8695710561050894CD
:102DC0000895E894BB2766277727CB0197F90895E4
:102DD0000E94FA160C94AE160E94A01638F00E94BB
:102DE000A71620F0952311F00C9497160C949D16BD
:102DF0000C94E2160E94BF1678F39923C9F3552369
:102E0000B9F3950F50E0551FAA27EE27FF27BB27E0
:102E100000240894679520F4E20FF31FB41F0A1EE4
:102E2000220F331F441FAA1F6695A9F7779530F428
:102E3000F30FB41F0A1E121E08F46395330F441FCC
:102E4000AA1F221F769599F7879520F4B40F0A1EC2
:102E5000121E631F440FAA1F221F331F8695A9F756
:102E6000862F712D602D11249F5750409AF0F1F05C
:102E700088234AF0EE0FFF1FBB1F661F771F881FB6
:102E800091505040A9F79E3F510580F00C94971641
:102E90000C94E2165F3FE4F3983ED4F38695779561
:102EA0006795B795F795E7959F5FC1F7FE2B880F5C
:102EB000911D9695879597F908950024552704C08C
:102EC000080E591F880F991F009729F0769567956E
:102ED000B8F37105B9F7802D952F0895991B79E006
:102EE00004C0991F961708F0961B881F7A95C9F79A
:102EF00080950895AA1BBB1B51E107C0AA1FBB1FE9
:102F0000A617B70710F0A61BB70B881F991F5A9575
:102F1000A9F780959095BC01CD01089597FB072EE8
:102F200016F4009407D077FD09D00E947A1707FCA9
:102F300005D03EF4909581959F4F089570956195C9
:102F40007F4F0895E199FECF1FBA8EBBE09A992773
:102F50008DB30895262FE199FECF1FBA8EBBE09A5C
:102F600081500DB2021639F01CBA2DBB0FB6F89481
:0C2F7000E29AE19A0FBE0895F894FFCF9A
:102F7C00060B180101010004452943030237180010
:102F8C000505959595030303950301012C32070262
:102F9C00150112010F0102010000000000000001E8
:102FAC0000000000000000000100002101230225A8
:0A2FBC0003270429052C06FF060078
:00000001FF
